{
  "_format": "hh-sol-artifact-1",
  "contractName": "PassTokenFactory",
  "sourceName": "contracts/PassTokenFactory.sol",
  "abi": [
    {
      "anonymous": false,
      "inputs": [
        {
          "indexed": true,
          "internalType": "address",
          "name": "underlying",
          "type": "address"
        },
        {
          "indexed": true,
          "internalType": "address",
          "name": "vault",
          "type": "address"
        },
        {
          "indexed": true,
          "internalType": "address",
          "name": "pToken",
          "type": "address"
        },
        {
          "indexed": false,
          "internalType": "string",
          "name": "name",
          "type": "string"
        },
        {
          "indexed": false,
          "internalType": "string",
          "name": "symbol",
          "type": "string"
        }
      ],
      "name": "TokenDeployed",
      "type": "event"
    },
    {
      "inputs": [
        {
          "internalType": "address",
          "name": "underlying",
          "type": "address"
        },
        {
          "internalType": "string",
          "name": "name",
          "type": "string"
        },
        {
          "internalType": "string",
          "name": "symbol",
          "type": "string"
        }
      ],
      "name": "deployConfidentialToken",
      "outputs": [
        {
          "internalType": "address",
          "name": "",
          "type": "address"
        },
        {
          "internalType": "address",
          "name": "",
          "type": "address"
        }
      ],
      "stateMutability": "nonpayable",
      "type": "function"
    }
  ],
  "bytecode": "0x608060405234801561001057600080fd5b50613b0a806100206000396000f3fe60806040523480156200001157600080fd5b50600436106200002e5760003560e01c806315a5c7121462000033575b600080fd5b6200005160048036038101906200004b9190620003e1565b6200006a565b604051620000619291906200048c565b60405180910390f35b6000806000856040516200007e90620001ea565b6200008a9190620004b9565b604051809103906000f080158015620000a7573d6000803e3d6000fd5b5090506000858583604051620000bd90620001f8565b620000cb939291906200055f565b604051809103906000f080158015620000e8573d6000803e3d6000fd5b5090508173ffffffffffffffffffffffffffffffffffffffff1663a8805ea9826040518263ffffffff1660e01b8152600401620001269190620004b9565b600060405180830381600087803b1580156200014157600080fd5b505af115801562000156573d6000803e3d6000fd5b505050508073ffffffffffffffffffffffffffffffffffffffff168273ffffffffffffffffffffffffffffffffffffffff168873ffffffffffffffffffffffffffffffffffffffff167f70d9081689458ea5f3e04968e1e634552d71b95d95003fc17d803e51fe3e73958989604051620001d2929190620005aa565b60405180910390a48082935093505050935093915050565b610c8480620005e683390190565b61286b806200126a83390190565b6000604051905090565b600080fd5b600080fd5b600073ffffffffffffffffffffffffffffffffffffffff82169050919050565b600062000247826200021a565b9050919050565b62000259816200023a565b81146200026557600080fd5b50565b60008135905062000279816200024e565b92915050565b600080fd5b600080fd5b6000601f19601f8301169050919050565b7f4e487b7100000000000000000000000000000000000000000000000000000000600052604160045260246000fd5b620002d48262000289565b810181811067ffffffffffffffff82111715620002f657620002f56200029a565b5b80604052505050565b60006200030b62000206565b9050620003198282620002c9565b919050565b600067ffffffffffffffff8211156200033c576200033b6200029a565b5b620003478262000289565b9050602081019050919050565b82818337600083830152505050565b60006200037a62000374846200031e565b620002ff565b90508281526020810184848401111562000399576200039862000284565b5b620003a684828562000354565b509392505050565b600082601f830112620003c657620003c56200027f565b5b8135620003d884826020860162000363565b91505092915050565b600080600060608486031215620003fd57620003fc62000210565b5b60006200040d8682870162000268565b935050602084013567ffffffffffffffff81111562000431576200043062000215565b5b6200043f86828701620003ae565b925050604084013567ffffffffffffffff81111562000463576200046262000215565b5b6200047186828701620003ae565b9150509250925092565b62000486816200023a565b82525050565b6000604082019050620004a360008301856200047b565b620004b260208301846200047b565b9392505050565b6000602082019050620004d060008301846200047b565b92915050565b600081519050919050565b600082825260208201905092915050565b60005b8381101562000512578082015181840152602081019050620004f5565b60008484015250505050565b60006200052b82620004d6565b620005378185620004e1565b935062000549818560208601620004f2565b620005548162000289565b840191505092915050565b600060608201905081810360008301526200057b81866200051e565b905081810360208301526200059181856200051e565b9050620005a260408301846200047b565b949350505050565b60006040820190508181036000830152620005c681856200051e565b90508181036020830152620005dc81846200051e565b9050939250505056fe608060405234801561001057600080fd5b50604051610c84380380610c84833981810160405281019061003291906100dc565b80600160006101000a81548173ffffffffffffffffffffffffffffffffffffffff021916908373ffffffffffffffffffffffffffffffffffffffff16021790555050610109565b600080fd5b600073ffffffffffffffffffffffffffffffffffffffff82169050919050565b60006100a98261007e565b9050919050565b6100b98161009e565b81146100c457600080fd5b50565b6000815190506100d6816100b0565b92915050565b6000602082840312156100f2576100f1610079565b5b6000610100848285016100c7565b91505092915050565b610b6c806101186000396000f3fe608060405234801561001057600080fd5b50600436106100575760003560e01c806358a06f071461005c578063633156371461007a578063a8805ea914610098578063ab2b1081146100b4578063b6b55f25146100d0575b600080fd5b6100646100ec565b6040516100719190610590565b60405180910390f35b610082610110565b60405161008f91906105cc565b60405180910390f35b6100b260048036038101906100ad919061062f565b610136565b005b6100ce60048036038101906100c991906106bc565b610179565b005b6100ea60048036038101906100e5919061074e565b610301565b005b60008054906101000a900473ffffffffffffffffffffffffffffffffffffffff1681565b600160009054906101000a900473ffffffffffffffffffffffffffffffffffffffff1681565b806000806101000a81548173ffffffffffffffffffffffffffffffffffffffff021916908373ffffffffffffffffffffffffffffffffffffffff16021790555050565b60008054906101000a900473ffffffffffffffffffffffffffffffffffffffff1673ffffffffffffffffffffffffffffffffffffffff166338b3812e3384846040518463ffffffff1660e01b81526004016101d693929190610917565b600060405180830381600087803b1580156101f057600080fd5b505af1158015610204573d6000803e3d6000fd5b50505050600160009054906101000a900473ffffffffffffffffffffffffffffffffffffffff1673ffffffffffffffffffffffffffffffffffffffff1663a9059cbb338463ffffffff166040518363ffffffff1660e01b815260040161026b929190610964565b6020604051808303816000875af115801561028a573d6000803e3d6000fd5b505050506040513d601f19601f820116820180604052508101906102ae91906109c5565b503373ffffffffffffffffffffffffffffffffffffffff167f7fcf532c15f0a6db0bd6d0e038bea71d30d808c7d98cb3bf7268a95bf5081b65836040516102f59190610a23565b60405180910390a25050565b600073ffffffffffffffffffffffffffffffffffffffff1660008054906101000a900473ffffffffffffffffffffffffffffffffffffffff1673ffffffffffffffffffffffffffffffffffffffff1603610390576040517f08c379a000000000000000000000000000000000000000000000000000000000815260040161038790610a9b565b60405180910390fd5b600160009054906101000a900473ffffffffffffffffffffffffffffffffffffffff1673ffffffffffffffffffffffffffffffffffffffff166323b872dd3330846040518463ffffffff1660e01b81526004016103ef93929190610abb565b6020604051808303816000875af115801561040e573d6000803e3d6000fd5b505050506040513d601f19601f8201168201806040525081019061043291906109c5565b5060008054906101000a900473ffffffffffffffffffffffffffffffffffffffff1673ffffffffffffffffffffffffffffffffffffffff1663d35e29d733836040518363ffffffff1660e01b815260040161048e929190610af2565b600060405180830381600087803b1580156104a857600080fd5b505af11580156104bc573d6000803e3d6000fd5b505050503373ffffffffffffffffffffffffffffffffffffffff167fe1fffcc4923d04b559f4d29a8bfc6cda04eb5b0d3c460751c2402c5c5cc9109c826040516105069190610b1b565b60405180910390a250565b600073ffffffffffffffffffffffffffffffffffffffff82169050919050565b6000819050919050565b600061055661055161054c84610511565b610531565b610511565b9050919050565b60006105688261053b565b9050919050565b600061057a8261055d565b9050919050565b61058a8161056f565b82525050565b60006020820190506105a56000830184610581565b92915050565b60006105b68261055d565b9050919050565b6105c6816105ab565b82525050565b60006020820190506105e160008301846105bd565b92915050565b600080fd5b600080fd5b60006105fc82610511565b9050919050565b61060c816105f1565b811461061757600080fd5b50565b60008135905061062981610603565b92915050565b600060208284031215610645576106446105e7565b5b60006106538482850161061a565b91505092915050565b600063ffffffff82169050919050565b6106758161065c565b811461068057600080fd5b50565b6000813590506106928161066c565b92915050565b600080fd5b6000604082840312156106b3576106b2610698565b5b81905092915050565b600080604083850312156106d3576106d26105e7565b5b60006106e185828601610683565b925050602083013567ffffffffffffffff811115610702576107016105ec565b5b61070e8582860161069d565b9150509250929050565b6000819050919050565b61072b81610718565b811461073657600080fd5b50565b60008135905061074881610722565b92915050565b600060208284031215610764576107636105e7565b5b600061077284828501610739565b91505092915050565b610784816105f1565b82525050565b6107938161065c565b82525050565b600080fd5b600080fd5b600080fd5b600080833560016020038436030381126107c5576107c46107a3565b5b83810192508235915060208301925067ffffffffffffffff8211156107ed576107ec610799565b5b6001820236038313156108035761080261079e565b5b509250929050565b600082825260208201905092915050565b82818337600083830152505050565b6000601f19601f8301169050919050565b6000610848838561080b565b935061085583858461081c565b61085e8361082b565b840190509392505050565b60008160030b9050919050565b61087f81610869565b811461088a57600080fd5b50565b60008135905061089c81610876565b92915050565b60006108b1602084018461088d565b905092915050565b6108c281610869565b82525050565b6000604083016108db60008401846107a8565b85830360008701526108ee83828461083c565b925050506108ff60208401846108a2565b61090c60208601826108b9565b508091505092915050565b600060608201905061092c600083018661077b565b610939602083018561078a565b818103604083015261094b81846108c8565b9050949350505050565b61095e81610718565b82525050565b6000604082019050610979600083018561077b565b6109866020830184610955565b9392505050565b60008115159050919050565b6109a28161098d565b81146109ad57600080fd5b50565b6000815190506109bf81610999565b92915050565b6000602082840312156109db576109da6105e7565b5b60006109e9848285016109b0565b91505092915050565b6000610a0d610a08610a038461065c565b610531565b610718565b9050919050565b610a1d816109f2565b82525050565b6000602082019050610a386000830184610a14565b92915050565b600082825260208201905092915050565b7f50617373546f6b656e206e6f7420736574000000000000000000000000000000600082015250565b6000610a85601183610a3e565b9150610a9082610a4f565b602082019050919050565b60006020820190508181036000830152610ab481610a78565b9050919050565b6000606082019050610ad0600083018661077b565b610add602083018561077b565b610aea6040830184610955565b949350505050565b6000604082019050610b07600083018561077b565b610b14602083018461078a565b9392505050565b6000602082019050610b306000830184610955565b9291505056fea26469706673582212203ca93b48c0cd0832edb8877c73f58570f8cb24f107b12ad9025895cec0e528c264736f6c6343000814003360806040523480156200001157600080fd5b506040516200286b3803806200286b8339818101604052810190620000379190620002a1565b828281600390816200004a919062000586565b5080600490816200005c919062000586565b50505080600560006101000a81548173ffffffffffffffffffffffffffffffffffffffff021916908373ffffffffffffffffffffffffffffffffffffffff1602179055505050506200066d565b6000604051905090565b600080fd5b600080fd5b600080fd5b600080fd5b6000601f19601f8301169050919050565b7f4e487b7100000000000000000000000000000000000000000000000000000000600052604160045260246000fd5b6200011282620000c7565b810181811067ffffffffffffffff82111715620001345762000133620000d8565b5b80604052505050565b600062000149620000a9565b905062000157828262000107565b919050565b600067ffffffffffffffff8211156200017a5762000179620000d8565b5b6200018582620000c7565b9050602081019050919050565b60005b83811015620001b257808201518184015260208101905062000195565b60008484015250505050565b6000620001d5620001cf846200015c565b6200013d565b905082815260208101848484011115620001f457620001f3620000c2565b5b6200020184828562000192565b509392505050565b600082601f830112620002215762000220620000bd565b5b815162000233848260208601620001be565b91505092915050565b600073ffffffffffffffffffffffffffffffffffffffff82169050919050565b600062000269826200023c565b9050919050565b6200027b816200025c565b81146200028757600080fd5b50565b6000815190506200029b8162000270565b92915050565b600080600060608486031215620002bd57620002bc620000b3565b5b600084015167ffffffffffffffff811115620002de57620002dd620000b8565b5b620002ec8682870162000209565b935050602084015167ffffffffffffffff81111562000310576200030f620000b8565b5b6200031e8682870162000209565b925050604062000331868287016200028a565b9150509250925092565b600081519050919050565b7f4e487b7100000000000000000000000000000000000000000000000000000000600052602260045260246000fd5b600060028204905060018216806200038e57607f821691505b602082108103620003a457620003a362000346565b5b50919050565b60008190508160005260206000209050919050565b60006020601f8301049050919050565b600082821b905092915050565b6000600883026200040e7fffffffffffffffffffffffffffffffffffffffffffffffffffffffffffffffff82620003cf565b6200041a8683620003cf565b95508019841693508086168417925050509392505050565b6000819050919050565b6000819050919050565b600062000467620004616200045b8462000432565b6200043c565b62000432565b9050919050565b6000819050919050565b620004838362000446565b6200049b62000492826200046e565b848454620003dc565b825550505050565b600090565b620004b2620004a3565b620004bf81848462000478565b505050565b5b81811015620004e757620004db600082620004a8565b600181019050620004c5565b5050565b601f82111562000536576200050081620003aa565b6200050b84620003bf565b810160208510156200051b578190505b620005336200052a85620003bf565b830182620004c4565b50505b505050565b600082821c905092915050565b60006200055b600019846008026200053b565b1980831691505092915050565b600062000576838362000548565b9150826002028217905092915050565b62000591826200033b565b67ffffffffffffffff811115620005ad57620005ac620000d8565b5b620005b9825462000375565b620005c6828285620004eb565b600060209050601f831160018114620005fe5760008415620005e9578287015190505b620005f5858262000568565b86555062000665565b601f1984166200060e86620003aa565b60005b82811015620006385784890151825560018201915060208501945060208101905062000611565b8683101562000658578489015162000654601f89168262000548565b8355505b6001600288020188555050505b505050505050565b6121ee806200067d6000396000f3fe608060405234801561001057600080fd5b506004361061010b5760003560e01c806376a58816116100a2578063dd62ed3e11610071578063dd62ed3e146102cc578063dfc3c709146102fc578063f9d9556414610318578063fb2e421914610334578063fbfa77cf146103645761010b565b806376a588161461024657806395d89b4114610262578063a9059cbb14610280578063d35e29d7146102b05761010b565b8063313ce567116100de578063313ce567146101ac57806338b3812e146101ca57806360277204146101e657806370a08231146102165761010b565b806306fdde0314610110578063095ea7b31461012e57806318160ddd1461015e57806323b872dd1461017c575b600080fd5b610118610382565b6040516101259190611604565b60405180910390f35b610148600480360381019061014391906116ce565b610414565b6040516101559190611729565b60405180910390f35b610166610437565b6040516101739190611753565b60405180910390f35b6101966004803603810190610191919061176e565b610441565b6040516101a39190611729565b60405180910390f35b6101b4610470565b6040516101c191906117dd565b60405180910390f35b6101e460048036038101906101df9190611858565b610479565b005b61020060048036038101906101fb9190611aa8565b6106ba565b60405161020d9190611604565b60405180910390f35b610230600480360381019061022b9190611b04565b610713565b60405161023d9190611753565b60405180910390f35b610260600480360381019061025b9190611b31565b61075b565b005b61026a6109a1565b6040516102779190611604565b60405180910390f35b61029a600480360381019061029591906116ce565b610a33565b6040516102a79190611729565b60405180910390f35b6102ca60048036038101906102c59190611bbc565b610a56565b005b6102e660048036038101906102e19190611bfc565b610b7e565b6040516102f39190611753565b60405180910390f35b61031660048036038101906103119190611c3c565b610c05565b005b610332600480360381019061032d9190611cb1565b610cb5565b005b61034e60048036038101906103499190611b04565b610d0f565b60405161035b9190611729565b60405180910390f35b61036c610d2f565b6040516103799190611ced565b60405180910390f35b60606003805461039190611d37565b80601f01602080910402602001604051908101604052809291908181526020018280546103bd90611d37565b801561040a5780601f106103df5761010080835404028352916020019161040a565b820191906000526020600020905b8154815290600101906020018083116103ed57829003601f168201915b5050505050905090565b60008061041f610d55565b905061042c818585610d5d565b600191505092915050565b6000600254905090565b60008061044c610d55565b9050610459858285610d6f565b610464858585610e04565b60019150509392505050565b60006012905090565b600560009054906101000a900473ffffffffffffffffffffffffffffffffffffffff1673ffffffffffffffffffffffffffffffffffffffff163373ffffffffffffffffffffffffffffffffffffffff1614610509576040517f08c379a000000000000000000000000000000000000000000000000000000000815260040161050090611db4565b60405180910390fd5b600860008473ffffffffffffffffffffffffffffffffffffffff1673ffffffffffffffffffffffffffffffffffffffff16815260200190815260200160002060009054906101000a900460ff16156105ca57600061056f8261056a90611e79565b610ef8565b905060006105bc82600760008873ffffffffffffffffffffffffffffffffffffffff1673ffffffffffffffffffffffffffffffffffffffff16815260200190815260200160002054610f29565b90506105c781610f47565b50505b60006105d583610f8d565b905061062861062382600660008873ffffffffffffffffffffffffffffffffffffffff1673ffffffffffffffffffffffffffffffffffffffff16815260200190815260200160002054610f9d565b610f47565b610671600660008673ffffffffffffffffffffffffffffffffffffffff1673ffffffffffffffffffffffffffffffffffffffff1681526020019081526020016000205482610fbc565b600660008673ffffffffffffffffffffffffffffffffffffffff1673ffffffffffffffffffffffffffffffffffffffff1681526020019081526020016000208190555050505050565b60608161070a600660008673ffffffffffffffffffffffffffffffffffffffff1673ffffffffffffffffffffffffffffffffffffffff168152602001908152602001600020548460000151610fd2565b91505092915050565b60008060008373ffffffffffffffffffffffffffffffffffffffff1673ffffffffffffffffffffffffffffffffffffffff168152602001908152602001600020549050919050565b600860003373ffffffffffffffffffffffffffffffffffffffff1673ffffffffffffffffffffffffffffffffffffffff16815260200190815260200160002060009054906101000a900460ff161561081c5760006107c1826107bc90611e79565b610ef8565b9050600061080e82600760003373ffffffffffffffffffffffffffffffffffffffff1673ffffffffffffffffffffffffffffffffffffffff16815260200190815260200160002054610f29565b905061081981610f47565b50505b60006108308361082b90611e79565b610ef8565b905061088361087e82600660003373ffffffffffffffffffffffffffffffffffffffff1673ffffffffffffffffffffffffffffffffffffffff16815260200190815260200160002054610f9d565b610f47565b6108cc600660003373ffffffffffffffffffffffffffffffffffffffff1673ffffffffffffffffffffffffffffffffffffffff1681526020019081526020016000205482610fbc565b600660003373ffffffffffffffffffffffffffffffffffffffff1673ffffffffffffffffffffffffffffffffffffffff16815260200190815260200160002081905550610958600660008673ffffffffffffffffffffffffffffffffffffffff1673ffffffffffffffffffffffffffffffffffffffff1681526020019081526020016000205482611162565b600660008673ffffffffffffffffffffffffffffffffffffffff1673ffffffffffffffffffffffffffffffffffffffff1681526020019081526020016000208190555050505050565b6060600480546109b090611d37565b80601f01602080910402602001604051908101604052809291908181526020018280546109dc90611d37565b8015610a295780601f106109fe57610100808354040283529160200191610a29565b820191906000526020600020905b815481529060010190602001808311610a0c57829003601f168201915b5050505050905090565b600080610a3e610d55565b9050610a4b818585610e04565b600191505092915050565b600560009054906101000a900473ffffffffffffffffffffffffffffffffffffffff1673ffffffffffffffffffffffffffffffffffffffff163373ffffffffffffffffffffffffffffffffffffffff1614610ae6576040517f08c379a0000000000000000000000000000000000000000000000000000000008152600401610add90611db4565b60405180910390fd5b610b37600660008473ffffffffffffffffffffffffffffffffffffffff1673ffffffffffffffffffffffffffffffffffffffff16815260200190815260200160002054610b3283610f8d565b611162565b600660008473ffffffffffffffffffffffffffffffffffffffff1673ffffffffffffffffffffffffffffffffffffffff168152602001908152602001600020819055505050565b6000600160008473ffffffffffffffffffffffffffffffffffffffff1673ffffffffffffffffffffffffffffffffffffffff16815260200190815260200160002060008373ffffffffffffffffffffffffffffffffffffffff1673ffffffffffffffffffffffffffffffffffffffff16815260200190815260200160002054905092915050565b610c1781610c1290611e79565b610ef8565b600760003373ffffffffffffffffffffffffffffffffffffffff1673ffffffffffffffffffffffffffffffffffffffff168152602001908152602001600020819055506001600860003373ffffffffffffffffffffffffffffffffffffffff1673ffffffffffffffffffffffffffffffffffffffff16815260200190815260200160002060006101000a81548160ff02191690831515021790555050565b80600860003373ffffffffffffffffffffffffffffffffffffffff1673ffffffffffffffffffffffffffffffffffffffff16815260200190815260200160002060006101000a81548160ff02191690831515021790555050565b60086020528060005260406000206000915054906101000a900460ff1681565b600560009054906101000a900473ffffffffffffffffffffffffffffffffffffffff1681565b600033905090565b610d6a8383836001611178565b505050565b6000610d7b8484610b7e565b90507fffffffffffffffffffffffffffffffffffffffffffffffffffffffffffffffff811015610dfe5781811015610dee578281836040517ffb8f41b2000000000000000000000000000000000000000000000000000000008152600401610de593929190611e8c565b60405180910390fd5b610dfd84848484036000611178565b5b50505050565b600073ffffffffffffffffffffffffffffffffffffffff168373ffffffffffffffffffffffffffffffffffffffff1603610e765760006040517f96c6fd1e000000000000000000000000000000000000000000000000000000008152600401610e6d9190611ced565b60405180910390fd5b600073ffffffffffffffffffffffffffffffffffffffff168273ffffffffffffffffffffffffffffffffffffffff1603610ee85760006040517fec442f05000000000000000000000000000000000000000000000000000000008152600401610edf9190611ced565b60405180910390fd5b610ef383838361134f565b505050565b6000602082600001515103610f1f578160000151610f1590611f00565b60001c9050610f24565b600090505b919050565b6000818314610f39576000610f3c565b60015b60ff16905092915050565b60008103610f8a576040517f08c379a0000000000000000000000000000000000000000000000000000000008152600401610f8190611fb3565b60405180910390fd5b50565b60008163ffffffff169050919050565b600081831115610fae576000610fb1565b60015b60ff16905092915050565b60008183610fca9190612002565b905092915050565b606060008390506000810361101f576040518060400160405280600181526020017f300000000000000000000000000000000000000000000000000000000000000081525091505061115c565b600081905060005b6000821461105157808061103a90612036565b915050600a8261104a91906120ad565b9150611027565b60008167ffffffffffffffff81111561106d5761106c6118cc565b5b6040519080825280601f01601f19166020018201604052801561109f5781602001600182028036833780820191505090505b50905060008290505b60008514611153576001816110bd9190612002565b90506000600a80876110cf91906120ad565b6110d991906120de565b866110e49190612002565b60306110f09190612120565b905060008160f81b90508084848151811061110e5761110d612155565b5b60200101907effffffffffffffffffffffffffffffffffffffffffffffffffffffffffffff1916908160001a905350600a8761114a91906120ad565b965050506110a8565b81955050505050505b92915050565b600081836111709190612184565b905092915050565b600073ffffffffffffffffffffffffffffffffffffffff168473ffffffffffffffffffffffffffffffffffffffff16036111ea5760006040517fe602df050000000000000000000000000000000000000000000000000000000081526004016111e19190611ced565b60405180910390fd5b600073ffffffffffffffffffffffffffffffffffffffff168373ffffffffffffffffffffffffffffffffffffffff160361125c5760006040517f94280d620000000000000000000000000000000000000000000000000000000081526004016112539190611ced565b60405180910390fd5b81600160008673ffffffffffffffffffffffffffffffffffffffff1673ffffffffffffffffffffffffffffffffffffffff16815260200190815260200160002060008573ffffffffffffffffffffffffffffffffffffffff1673ffffffffffffffffffffffffffffffffffffffff168152602001908152602001600020819055508015611349578273ffffffffffffffffffffffffffffffffffffffff168473ffffffffffffffffffffffffffffffffffffffff167f8c5be1e5ebec7d5bd14f71427d1e84f3dd0314c0f7b2291e5b200ac8c7c3b925846040516113409190611753565b60405180910390a35b50505050565b600073ffffffffffffffffffffffffffffffffffffffff168373ffffffffffffffffffffffffffffffffffffffff16036113a15780600260008282546113959190612184565b92505081905550611474565b60008060008573ffffffffffffffffffffffffffffffffffffffff1673ffffffffffffffffffffffffffffffffffffffff1681526020019081526020016000205490508181101561142d578381836040517fe450d38c00000000000000000000000000000000000000000000000000000000815260040161142493929190611e8c565b60405180910390fd5b8181036000808673ffffffffffffffffffffffffffffffffffffffff1673ffffffffffffffffffffffffffffffffffffffff16815260200190815260200160002081905550505b600073ffffffffffffffffffffffffffffffffffffffff168273ffffffffffffffffffffffffffffffffffffffff16036114bd578060026000828254039250508190555061150a565b806000808473ffffffffffffffffffffffffffffffffffffffff1673ffffffffffffffffffffffffffffffffffffffff168152602001908152602001600020600082825401925050819055505b8173ffffffffffffffffffffffffffffffffffffffff168373ffffffffffffffffffffffffffffffffffffffff167fddf252ad1be2c89b69c2b068fc378daa952ba7f163c4a11628f55a4df523b3ef836040516115679190611753565b60405180910390a3505050565b600081519050919050565b600082825260208201905092915050565b60005b838110156115ae578082015181840152602081019050611593565b60008484015250505050565b6000601f19601f8301169050919050565b60006115d682611574565b6115e0818561157f565b93506115f0818560208601611590565b6115f9816115ba565b840191505092915050565b6000602082019050818103600083015261161e81846115cb565b905092915050565b6000604051905090565b600080fd5b600080fd5b600073ffffffffffffffffffffffffffffffffffffffff82169050919050565b60006116658261163a565b9050919050565b6116758161165a565b811461168057600080fd5b50565b6000813590506116928161166c565b92915050565b6000819050919050565b6116ab81611698565b81146116b657600080fd5b50565b6000813590506116c8816116a2565b92915050565b600080604083850312156116e5576116e4611630565b5b60006116f385828601611683565b9250506020611704858286016116b9565b9150509250929050565b60008115159050919050565b6117238161170e565b82525050565b600060208201905061173e600083018461171a565b92915050565b61174d81611698565b82525050565b60006020820190506117686000830184611744565b92915050565b60008060006060848603121561178757611786611630565b5b600061179586828701611683565b93505060206117a686828701611683565b92505060406117b7868287016116b9565b9150509250925092565b600060ff82169050919050565b6117d7816117c1565b82525050565b60006020820190506117f260008301846117ce565b92915050565b600063ffffffff82169050919050565b611811816117f8565b811461181c57600080fd5b50565b60008135905061182e81611808565b92915050565b600080fd5b60006040828403121561184f5761184e611834565b5b81905092915050565b60008060006060848603121561187157611870611630565b5b600061187f86828701611683565b93505060206118908682870161181f565b925050604084013567ffffffffffffffff8111156118b1576118b0611635565b5b6118bd86828701611839565b9150509250925092565b600080fd5b7f4e487b7100000000000000000000000000000000000000000000000000000000600052604160045260246000fd5b611904826115ba565b810181811067ffffffffffffffff82111715611923576119226118cc565b5b80604052505050565b6000611936611626565b905061194282826118fb565b919050565b600080fd5b6000819050919050565b61195f8161194c565b811461196a57600080fd5b50565b60008135905061197c81611956565b92915050565b600080fd5b600080fd5b600067ffffffffffffffff8211156119a7576119a66118cc565b5b6119b0826115ba565b9050602081019050919050565b82818337600083830152505050565b60006119df6119da8461198c565b61192c565b9050828152602081018484840111156119fb576119fa611987565b5b611a068482856119bd565b509392505050565b600082601f830112611a2357611a22611982565b5b8135611a338482602086016119cc565b91505092915050565b600060408284031215611a5257611a516118c7565b5b611a5c604061192c565b90506000611a6c8482850161196d565b600083015250602082013567ffffffffffffffff811115611a9057611a8f611947565b5b611a9c84828501611a0e565b60208301525092915050565b60008060408385031215611abf57611abe611630565b5b6000611acd85828601611683565b925050602083013567ffffffffffffffff811115611aee57611aed611635565b5b611afa85828601611a3c565b9150509250929050565b600060208284031215611b1a57611b19611630565b5b6000611b2884828501611683565b91505092915050565b600080600060608486031215611b4a57611b49611630565b5b6000611b5886828701611683565b935050602084013567ffffffffffffffff811115611b7957611b78611635565b5b611b8586828701611839565b925050604084013567ffffffffffffffff811115611ba657611ba5611635565b5b611bb286828701611839565b9150509250925092565b60008060408385031215611bd357611bd2611630565b5b6000611be185828601611683565b9250506020611bf28582860161181f565b9150509250929050565b60008060408385031215611c1357611c12611630565b5b6000611c2185828601611683565b9250506020611c3285828601611683565b9150509250929050565b600060208284031215611c5257611c51611630565b5b600082013567ffffffffffffffff811115611c7057611c6f611635565b5b611c7c84828501611839565b91505092915050565b611c8e8161170e565b8114611c9957600080fd5b50565b600081359050611cab81611c85565b92915050565b600060208284031215611cc757611cc6611630565b5b6000611cd584828501611c9c565b91505092915050565b611ce78161165a565b82525050565b6000602082019050611d026000830184611cde565b92915050565b7f4e487b7100000000000000000000000000000000000000000000000000000000600052602260045260246000fd5b60006002820490506001821680611d4f57607f821691505b602082108103611d6257611d61611d08565b5b50919050565b7f4f6e6c79207661756c742063616e2063616c6c00000000000000000000000000600082015250565b6000611d9e60138361157f565b9150611da982611d68565b602082019050919050565b60006020820190508181036000830152611dcd81611d91565b9050919050565b60008160030b9050919050565b611dea81611dd4565b8114611df557600080fd5b50565b600081359050611e0781611de1565b92915050565b600060408284031215611e2357611e226118c7565b5b611e2d604061192c565b9050600082013567ffffffffffffffff811115611e4d57611e4c611947565b5b611e5984828501611a0e565b6000830152506020611e6d84828501611df8565b60208301525092915050565b6000611e853683611e0d565b9050919050565b6000606082019050611ea16000830186611cde565b611eae6020830185611744565b611ebb6040830184611744565b949350505050565b600081519050919050565b6000819050602082019050919050565b6000611eea825161194c565b80915050919050565b600082821b905092915050565b6000611f0b82611ec3565b82611f1584611ece565b9050611f2081611ede565b92506020821015611f6057611f5b7fffffffffffffffffffffffffffffffffffffffffffffffffffffffffffffffff83602003600802611ef3565b831692505b5050919050565b7f4648452056616c69646174696f6e204661696c65640000000000000000000000600082015250565b6000611f9d60158361157f565b9150611fa882611f67565b602082019050919050565b60006020820190508181036000830152611fcc81611f90565b9050919050565b7f4e487b7100000000000000000000000000000000000000000000000000000000600052601160045260246000fd5b600061200d82611698565b915061201883611698565b92508282039050818111156120305761202f611fd3565b5b92915050565b600061204182611698565b91507fffffffffffffffffffffffffffffffffffffffffffffffffffffffffffffffff820361207357612072611fd3565b5b600182019050919050565b7f4e487b7100000000000000000000000000000000000000000000000000000000600052601260045260246000fd5b60006120b882611698565b91506120c383611698565b9250826120d3576120d261207e565b5b828204905092915050565b60006120e982611698565b91506120f483611698565b925082820261210281611698565b9150828204841483151761211957612118611fd3565b5b5092915050565b600061212b826117c1565b9150612136836117c1565b9250828201905060ff81111561214f5761214e611fd3565b5b92915050565b7f4e487b7100000000000000000000000000000000000000000000000000000000600052603260045260246000fd5b600061218f82611698565b915061219a83611698565b92508282019050808211156121b2576121b1611fd3565b5b9291505056fea26469706673582212200a8290b8b3c6978590a5e63fbf8ec5021dc17d2ff71ca38e2ff1cf60cb04f8f764736f6c63430008140033a2646970667358221220ce2a3743839a61a69e73c8d61309bb36f13fe0f840c6f2d5ff94f8898200896b64736f6c63430008140033",
  "linkReferences": {},
  "deployedLinkReferences": {}
}