{
  "_format": "hh-sol-artifact-1",
  "contractName": "PassERC20",
  "sourceName": "contracts/PassERC20.sol",
  "abi": [
    {
      "inputs": [
        {
          "internalType": "string",
          "name": "name",
          "type": "string"
        },
        {
          "internalType": "string",
          "name": "symbol",
          "type": "string"
        }
      ],
      "stateMutability": "nonpayable",
      "type": "constructor"
    },
    {
      "inputs": [
        {
          "internalType": "address",
          "name": "spender",
          "type": "address"
        },
        {
          "internalType": "uint256",
          "name": "allowance",
          "type": "uint256"
        },
        {
          "internalType": "uint256",
          "name": "needed",
          "type": "uint256"
        }
      ],
      "name": "ERC20InsufficientAllowance",
      "type": "error"
    },
    {
      "inputs": [
        {
          "internalType": "address",
          "name": "sender",
          "type": "address"
        },
        {
          "internalType": "uint256",
          "name": "balance",
          "type": "uint256"
        },
        {
          "internalType": "uint256",
          "name": "needed",
          "type": "uint256"
        }
      ],
      "name": "ERC20InsufficientBalance",
      "type": "error"
    },
    {
      "inputs": [
        {
          "internalType": "address",
          "name": "approver",
          "type": "address"
        }
      ],
      "name": "ERC20InvalidApprover",
      "type": "error"
    },
    {
      "inputs": [
        {
          "internalType": "address",
          "name": "receiver",
          "type": "address"
        }
      ],
      "name": "ERC20InvalidReceiver",
      "type": "error"
    },
    {
      "inputs": [
        {
          "internalType": "address",
          "name": "sender",
          "type": "address"
        }
      ],
      "name": "ERC20InvalidSender",
      "type": "error"
    },
    {
      "inputs": [
        {
          "internalType": "address",
          "name": "spender",
          "type": "address"
        }
      ],
      "name": "ERC20InvalidSpender",
      "type": "error"
    },
    {
      "inputs": [
        {
          "internalType": "uint8",
          "name": "got",
          "type": "uint8"
        },
        {
          "internalType": "uint8",
          "name": "expected",
          "type": "uint8"
        }
      ],
      "name": "InvalidEncryptedInput",
      "type": "error"
    },
    {
      "inputs": [
        {
          "internalType": "address",
          "name": "owner",
          "type": "address"
        }
      ],
      "name": "OwnableInvalidOwner",
      "type": "error"
    },
    {
      "inputs": [
        {
          "internalType": "address",
          "name": "account",
          "type": "address"
        }
      ],
      "name": "OwnableUnauthorizedAccount",
      "type": "error"
    },
    {
      "inputs": [
        {
          "internalType": "int32",
          "name": "value",
          "type": "int32"
        }
      ],
      "name": "SecurityZoneOutOfBounds",
      "type": "error"
    },
    {
      "anonymous": false,
      "inputs": [
        {
          "indexed": true,
          "internalType": "address",
          "name": "owner",
          "type": "address"
        },
        {
          "indexed": true,
          "internalType": "address",
          "name": "spender",
          "type": "address"
        },
        {
          "indexed": false,
          "internalType": "uint256",
          "name": "value",
          "type": "uint256"
        }
      ],
      "name": "Approval",
      "type": "event"
    },
    {
      "anonymous": false,
      "inputs": [
        {
          "indexed": true,
          "internalType": "address",
          "name": "previousOwner",
          "type": "address"
        },
        {
          "indexed": true,
          "internalType": "address",
          "name": "newOwner",
          "type": "address"
        }
      ],
      "name": "OwnershipTransferred",
      "type": "event"
    },
    {
      "anonymous": false,
      "inputs": [
        {
          "indexed": true,
          "internalType": "address",
          "name": "from",
          "type": "address"
        },
        {
          "indexed": true,
          "internalType": "address",
          "name": "to",
          "type": "address"
        },
        {
          "indexed": false,
          "internalType": "uint256",
          "name": "value",
          "type": "uint256"
        }
      ],
      "name": "Transfer",
      "type": "event"
    },
    {
      "anonymous": false,
      "inputs": [
        {
          "indexed": true,
          "internalType": "address",
          "name": "vault",
          "type": "address"
        }
      ],
      "name": "VaultUpdated",
      "type": "event"
    },
    {
      "inputs": [
        {
          "internalType": "address",
          "name": "owner",
          "type": "address"
        },
        {
          "internalType": "address",
          "name": "spender",
          "type": "address"
        }
      ],
      "name": "allowance",
      "outputs": [
        {
          "internalType": "uint256",
          "name": "",
          "type": "uint256"
        }
      ],
      "stateMutability": "view",
      "type": "function"
    },
    {
      "inputs": [
        {
          "internalType": "address",
          "name": "spender",
          "type": "address"
        },
        {
          "internalType": "uint256",
          "name": "value",
          "type": "uint256"
        }
      ],
      "name": "approve",
      "outputs": [
        {
          "internalType": "bool",
          "name": "",
          "type": "bool"
        }
      ],
      "stateMutability": "nonpayable",
      "type": "function"
    },
    {
      "inputs": [
        {
          "internalType": "address",
          "name": "account",
          "type": "address"
        }
      ],
      "name": "balanceHandle",
      "outputs": [
        {
          "internalType": "uint256",
          "name": "",
          "type": "uint256"
        }
      ],
      "stateMutability": "view",
      "type": "function"
    },
    {
      "inputs": [
        {
          "internalType": "address",
          "name": "account",
          "type": "address"
        }
      ],
      "name": "balanceOf",
      "outputs": [
        {
          "internalType": "uint256",
          "name": "",
          "type": "uint256"
        }
      ],
      "stateMutability": "view",
      "type": "function"
    },
    {
      "inputs": [
        {
          "internalType": "address",
          "name": "from",
          "type": "address"
        },
        {
          "internalType": "uint32",
          "name": "amount",
          "type": "uint32"
        },
        {
          "internalType": "euint32",
          "name": "pwd",
          "type": "uint256"
        }
      ],
      "name": "burn",
      "outputs": [
        {
          "internalType": "euint32",
          "name": "",
          "type": "uint256"
        }
      ],
      "stateMutability": "nonpayable",
      "type": "function"
    },
    {
      "inputs": [],
      "name": "decimals",
      "outputs": [
        {
          "internalType": "uint8",
          "name": "",
          "type": "uint8"
        }
      ],
      "stateMutability": "view",
      "type": "function"
    },
    {
      "inputs": [
        {
          "internalType": "address",
          "name": "account",
          "type": "address"
        }
      ],
      "name": "getPasswordHandle",
      "outputs": [
        {
          "internalType": "uint256",
          "name": "",
          "type": "uint256"
        }
      ],
      "stateMutability": "view",
      "type": "function"
    },
    {
      "inputs": [
        {
          "internalType": "address",
          "name": "",
          "type": "address"
        }
      ],
      "name": "isPasswordRequired",
      "outputs": [
        {
          "internalType": "bool",
          "name": "",
          "type": "bool"
        }
      ],
      "stateMutability": "view",
      "type": "function"
    },
    {
      "inputs": [
        {
          "internalType": "address",
          "name": "to",
          "type": "address"
        },
        {
          "internalType": "uint32",
          "name": "amount",
          "type": "uint32"
        }
      ],
      "name": "mint",
      "outputs": [],
      "stateMutability": "nonpayable",
      "type": "function"
    },
    {
      "inputs": [],
      "name": "name",
      "outputs": [
        {
          "internalType": "string",
          "name": "",
          "type": "string"
        }
      ],
      "stateMutability": "view",
      "type": "function"
    },
    {
      "inputs": [],
      "name": "owner",
      "outputs": [
        {
          "internalType": "address",
          "name": "",
          "type": "address"
        }
      ],
      "stateMutability": "view",
      "type": "function"
    },
    {
      "inputs": [],
      "name": "renounceOwnership",
      "outputs": [],
      "stateMutability": "nonpayable",
      "type": "function"
    },
    {
      "inputs": [
        {
          "components": [
            {
              "internalType": "uint256",
              "name": "ctHash",
              "type": "uint256"
            },
            {
              "internalType": "uint8",
              "name": "securityZone",
              "type": "uint8"
            },
            {
              "internalType": "uint8",
              "name": "utype",
              "type": "uint8"
            },
            {
              "internalType": "bytes",
              "name": "signature",
              "type": "bytes"
            }
          ],
          "internalType": "struct InEuint32",
          "name": "encryptedPassword",
          "type": "tuple"
        }
      ],
      "name": "setPassword",
      "outputs": [],
      "stateMutability": "nonpayable",
      "type": "function"
    },
    {
      "inputs": [
        {
          "internalType": "bool",
          "name": "enabled",
          "type": "bool"
        }
      ],
      "name": "setPasswordProtection",
      "outputs": [],
      "stateMutability": "nonpayable",
      "type": "function"
    },
    {
      "inputs": [
        {
          "internalType": "address",
          "name": "_vault",
          "type": "address"
        }
      ],
      "name": "setVault",
      "outputs": [],
      "stateMutability": "nonpayable",
      "type": "function"
    },
    {
      "inputs": [],
      "name": "symbol",
      "outputs": [
        {
          "internalType": "string",
          "name": "",
          "type": "string"
        }
      ],
      "stateMutability": "view",
      "type": "function"
    },
    {
      "inputs": [],
      "name": "totalSupply",
      "outputs": [
        {
          "internalType": "uint256",
          "name": "",
          "type": "uint256"
        }
      ],
      "stateMutability": "view",
      "type": "function"
    },
    {
      "inputs": [
        {
          "internalType": "address",
          "name": "to",
          "type": "address"
        },
        {
          "internalType": "uint256",
          "name": "value",
          "type": "uint256"
        }
      ],
      "name": "transfer",
      "outputs": [
        {
          "internalType": "bool",
          "name": "",
          "type": "bool"
        }
      ],
      "stateMutability": "nonpayable",
      "type": "function"
    },
    {
      "inputs": [
        {
          "internalType": "address",
          "name": "to",
          "type": "address"
        },
        {
          "components": [
            {
              "internalType": "uint256",
              "name": "ctHash",
              "type": "uint256"
            },
            {
              "internalType": "uint8",
              "name": "securityZone",
              "type": "uint8"
            },
            {
              "internalType": "uint8",
              "name": "utype",
              "type": "uint8"
            },
            {
              "internalType": "bytes",
              "name": "signature",
              "type": "bytes"
            }
          ],
          "internalType": "struct InEuint32",
          "name": "encryptedAmount",
          "type": "tuple"
        },
        {
          "components": [
            {
              "internalType": "uint256",
              "name": "ctHash",
              "type": "uint256"
            },
            {
              "internalType": "uint8",
              "name": "securityZone",
              "type": "uint8"
            },
            {
              "internalType": "uint8",
              "name": "utype",
              "type": "uint8"
            },
            {
              "internalType": "bytes",
              "name": "signature",
              "type": "bytes"
            }
          ],
          "internalType": "struct InEuint32",
          "name": "encryptedPassword",
          "type": "tuple"
        }
      ],
      "name": "transferEncrypted",
      "outputs": [],
      "stateMutability": "nonpayable",
      "type": "function"
    },
    {
      "inputs": [
        {
          "internalType": "address",
          "name": "from",
          "type": "address"
        },
        {
          "internalType": "address",
          "name": "to",
          "type": "address"
        },
        {
          "internalType": "uint256",
          "name": "value",
          "type": "uint256"
        }
      ],
      "name": "transferFrom",
      "outputs": [
        {
          "internalType": "bool",
          "name": "",
          "type": "bool"
        }
      ],
      "stateMutability": "nonpayable",
      "type": "function"
    },
    {
      "inputs": [
        {
          "internalType": "address",
          "name": "newOwner",
          "type": "address"
        }
      ],
      "name": "transferOwnership",
      "outputs": [],
      "stateMutability": "nonpayable",
      "type": "function"
    },
    {
      "inputs": [],
      "name": "vault",
      "outputs": [
        {
          "internalType": "address",
          "name": "",
          "type": "address"
        }
      ],
      "stateMutability": "view",
      "type": "function"
    }
  ],
  "bytecode": "0x608060405234801561000f575f80fd5b50604051611ae5380380611ae583398101604081905261002e91610179565b338282600361003d8382610262565b50600461004a8282610262565b5050506001600160a01b03811661007a57604051631e4fbdf760e01b81525f600482015260240160405180910390fd5b6100838161008b565b50505061031c565b600580546001600160a01b038381166001600160a01b0319831681179093556040519116919082907f8be0079c531659141344cd1fd0a4f28419497f9722a3daafe3b4186f6b6457e0905f90a35050565b634e487b7160e01b5f52604160045260245ffd5b5f82601f8301126100ff575f80fd5b81516001600160401b03811115610118576101186100dc565b604051601f8201601f19908116603f011681016001600160401b0381118282101715610146576101466100dc565b60405281815283820160200185101561015d575f80fd5b8160208501602083015e5f918101602001919091529392505050565b5f806040838503121561018a575f80fd5b82516001600160401b0381111561019f575f80fd5b6101ab858286016100f0565b602085015190935090506001600160401b038111156101c8575f80fd5b6101d4858286016100f0565b9150509250929050565b600181811c908216806101f257607f821691505b60208210810361021057634e487b7160e01b5f52602260045260245ffd5b50919050565b601f82111561025d57805f5260205f20601f840160051c8101602085101561023b5750805b601f840160051c820191505b8181101561025a575f8155600101610247565b50505b505050565b81516001600160401b0381111561027b5761027b6100dc565b61028f8161028984546101de565b84610216565b6020601f8211600181146102c1575f83156102aa5750848201515b5f19600385901b1c1916600184901b17845561025a565b5f84815260208120601f198516915b828110156102f057878501518255602094850194600190920191016102d0565b508482101561030d57868401515f19600387901b60f8161c191681555b50505050600190811b01905550565b6117bc806103295f395ff3fe608060405234801561000f575f80fd5b506004361061013d575f3560e01c806395d89b41116100b4578063d35e29d711610079578063d35e29d7146102c4578063dd62ed3e146102d7578063f2fde38b1461030f578063f9d9556414610322578063fb2e42191461034f578063fbfa77cf14610371575f80fd5b806395d89b4114610270578063a9059cbb14610278578063b7bd35071461028b578063c52cded91461029e578063c7ae9daa146102b1575f80fd5b806360dd31fc1161010557806360dd31fc146101b65780636817031b146101de5780636c9cc060146101f357806370a082311461021b578063715018a6146102435780638da5cb5b1461024b575f80fd5b806306fdde0314610141578063095ea7b31461015f57806318160ddd1461018257806323b872dd14610194578063313ce567146101a7575b5f80fd5b610149610384565b60405161015691906112c0565b60405180910390f35b61017261016d3660046112ed565b610414565b6040519015158152602001610156565b6002545b604051908152602001610156565b6101726101a2366004611315565b61042d565b60405160128152602001610156565b6101866101c436600461134f565b6001600160a01b03165f9081526006602052604090205490565b6101f16101ec36600461134f565b610450565b005b61018661020136600461134f565b6001600160a01b03165f9081526007602052604090205490565b61018661022936600461134f565b6001600160a01b03165f9081526020819052604090205490565b6101f16104a1565b6005546001600160a01b03165b6040516001600160a01b039091168152602001610156565b6101496104b4565b6101726102863660046112ed565b6104c3565b61018661029936600461137b565b6104d0565b6101f16102ac3660046113ba565b610652565b6101f16102bf36600461142e565b6107a7565b6101f16102d2366004611460565b610800565b6101866102e5366004611491565b6001600160a01b039182165f90815260016020908152604080832093909416825291909152205490565b6101f161031d36600461134f565b6108cf565b6101f16103303660046114b9565b335f908152600860205260409020805460ff1916911515919091179055565b61017261035d36600461134f565b60086020525f908152604090205460ff1681565b600954610258906001600160a01b031681565b606060038054610393906114d8565b80601f01602080910402602001604051908101604052809291908181526020018280546103bf906114d8565b801561040a5780601f106103e15761010080835404028352916020019161040a565b820191905f5260205f20905b8154815290600101906020018083116103ed57829003601f168201915b5050505050905090565b5f33610421818585610909565b60019150505b92915050565b5f3361043a858285610916565b610445858585610992565b506001949350505050565b6104586109ef565b600980546001600160a01b0319166001600160a01b0383169081179091556040517f161584aed96e7f34998117c9ad67e2d21ff46d2a42775c22b11ed282f3c7b2cd905f90a250565b6104a96109ef565b6104b25f610a1c565b565b606060048054610393906114d8565b5f33610421818585610992565b6009545f906001600160a01b031633146105275760405162461bcd60e51b815260206004820152601360248201527213db9b1e481d985d5b1d0818d85b8818d85b1b606a1b60448201526064015b60405180910390fd5b5f6105378463ffffffff16610a6d565b6001600160a01b0386165f90815260086020526040902054909150819060ff1615610598576001600160a01b0386165f9081526007602052604081205461057f908690610a78565b9050610594818461058f5f610a6d565b610ac0565b9150505b6001600160a01b0386165f908152600660205260408120546105bb908390610b21565b90506105cb818361058f5f610a6d565b6001600160a01b0388165f908152600660205260409020549092506105f09083610b62565b6001600160a01b0388165f90815260066020526040902081905561061390610ba3565b6001600160a01b0387165f908152600660205260409020546106359088610c0c565b61063e82610ba3565b6106488233610c0c565b5095945050505050565b5f61066461065f84611588565b610c77565b335f90815260086020526040902054909150819060ff16156106c0575f61068d61065f85611588565b335f90815260076020526040812054919250906106ab908390610a78565b90506106bb818561058f5f610a6d565b925050505b335f908152600660205260408120546106da908390610b21565b90506106ea818361058f5f610a6d565b335f908152600660205260409020549092506107069083610b62565b335f90815260066020526040902081905561072090610ba3565b335f8181526006602052604090205461073891610c0c565b6001600160a01b0386165f9081526006602052604090205461075a9083610d0c565b6001600160a01b0387165f90815260066020526040902081905561077d90610ba3565b6001600160a01b0386165f9081526006602052604090205461079f9087610c0c565b505050505050565b6107b361065f82611588565b335f90815260076020818152604080842094855560088252909220805460ff191660011790559052546107e590610ba3565b335f818152600760205260409020546107fd91610c0c565b50565b6009546001600160a01b031633146108505760405162461bcd60e51b815260206004820152601360248201527213db9b1e481d985d5b1d0818d85b8818d85b1b606a1b604482015260640161051e565b5f6108608263ffffffff16610a6d565b6001600160a01b0384165f908152600660205260409020549091506108859082610d0c565b6001600160a01b0384165f9081526006602052604090208190556108a890610ba3565b6001600160a01b0383165f908152600660205260409020546108ca9084610c0c565b505050565b6108d76109ef565b6001600160a01b03811661090057604051631e4fbdf760e01b81525f600482015260240161051e565b6107fd81610a1c565b6108ca8383836001610d4d565b6001600160a01b038381165f908152600160209081526040808320938616835292905220545f1981101561098c578181101561097e57604051637dc7a0d960e11b81526001600160a01b0384166004820152602481018290526044810183905260640161051e565b61098c84848484035f610d4d565b50505050565b6001600160a01b0383166109bb57604051634b637e8f60e11b81525f600482015260240161051e565b6001600160a01b0382166109e45760405163ec442f0560e01b81525f600482015260240161051e565b6108ca838383610e1f565b6005546001600160a01b031633146104b25760405163118cdaa760e01b815233600482015260240161051e565b600580546001600160a01b038381166001600160a01b0319831681179093556040519116919082907f8be0079c531659141344cd1fd0a4f28419497f9722a3daafe3b4186f6b6457e0905f90a35050565b5f610427825f610f45565b5f610a8283610f53565b610a9257610a8f5f610a6d565b92505b610a9b82610f53565b610aab57610aa85f610a6d565b91505b610ab9600484846018610f5c565b9392505050565b5f610aca84610f53565b610ada57610ad75f610ffd565b93505b610ae383610f53565b610af357610af05f610a6d565b92505b610afc82610f53565b610b0c57610b095f610a6d565b91505b610b196004858585611008565b949350505050565b5f610b2b83610f53565b610b3b57610b385f610a6d565b92505b610b4482610f53565b610b5457610b515f610a6d565b91505b610ab9600484846013610f5c565b5f610b6c83610f53565b610b7c57610b795f610a6d565b92505b610b8582610f53565b610b9557610b925f610a6d565b91505b610ab9600484846007610f5c565b604051631974142760e21b81526004810182905230602482015273ea30c4b8b44078bbf8a6ef5b9f1ec1626c7848d9906365d0509c906044015f604051808303815f87803b158015610bf3575f80fd5b505af1158015610c05573d5f803e3d5ffd5b5050505050565b604051631974142760e21b8152600481018390526001600160a01b038216602482015273ea30c4b8b44078bbf8a6ef5b9f1ec1626c7848d9906365d0509c906044015f604051808303815f87803b158015610c65575f80fd5b505af115801561079f573d5f803e3d5ffd5b60408101515f9060049060ff168114610cb65760408084015190516367cf307160e01b815260ff9182166004820152908216602482015260440161051e565b60408051608080820183525f808352602080840182905283850191909152606092830183905283519182018452865182528087015160ff16908201526004928101929092528085015190820152610ab990611031565b5f610d1683610f53565b610d2657610d235f610a6d565b92505b610d2f82610f53565b610d3f57610d3c5f610a6d565b91505b610ab9600484846008610f5c565b6001600160a01b038416610d765760405163e602df0560e01b81525f600482015260240161051e565b6001600160a01b038316610d9f57604051634a1406b160e11b81525f600482015260240161051e565b6001600160a01b038085165f908152600160209081526040808320938716835292905220829055801561098c57826001600160a01b0316846001600160a01b03167f8c5be1e5ebec7d5bd14f71427d1e84f3dd0314c0f7b2291e5b200ac8c7c3b92584604051610e1191815260200190565b60405180910390a350505050565b6001600160a01b038316610e49578060025f828254610e3e9190611651565b90915550610eb99050565b6001600160a01b0383165f9081526020819052604090205481811015610e9b5760405163391434e360e21b81526001600160a01b0385166004820152602481018290526044810183905260640161051e565b6001600160a01b0384165f9081526020819052604090209082900390555b6001600160a01b038216610ed557600280548290039055610ef3565b6001600160a01b0382165f9081526020819052604090208054820190555b816001600160a01b0316836001600160a01b03167fddf252ad1be2c89b69c2b068fc378daa952ba7f163c4a11628f55a4df523b3ef83604051610f3891815260200190565b60405180910390a3505050565b5f80610b19846004856110ac565b5f811515610427565b5f73ea30c4b8b44078bbf8a6ef5b9f1ec1626c7848d9631888debd8684610f838888611151565b604080515f815260208101918290526001600160e01b031960e087901b16909152610fb493929190602481016116aa565b6020604051808303815f875af1158015610fd0573d5f803e3d5ffd5b505050506040513d601f19601f82011682018060405250810190610ff49190611704565b95945050505050565b5f610427825f6111ba565b5f73ea30c4b8b44078bbf8a6ef5b9f1ec1626c7848d9631888debd866004610f838888886111d2565b6040516313fce3b160e11b81525f9073ea30c4b8b44078bbf8a6ef5b9f1ec1626c7848d9906327f9c7629061106c908590339060040161171b565b6020604051808303815f875af1158015611088573d5f803e3d5ffd5b505050506040513d601f19601f820116820180604052508101906104279190611704565b604080515f8082526020820190925273ea30c4b8b44078bbf8a6ef5b9f1ec1626c7848d990631888debd908590601a906110f2898960ff166110ed8a61125d565b6111d2565b6040518563ffffffff1660e01b815260040161111194939291906116aa565b6020604051808303815f875af115801561112d573d5f803e3d5ffd5b505050506040513d601f19601f82011682018060405250810190610b199190611704565b60408051600280825260608083018452925f92919060208301908036833701905050905083815f8151811061118857611188611772565b60200260200101818152505082816001815181106111a8576111a8611772565b60209081029190910101529392505050565b5f8083156111c6575060015b5f610ff4825f866110ac565b604080516003808252608082019092526060915f919060208201848036833701905050905084815f8151811061120a5761120a611772565b602002602001018181525050838160018151811061122a5761122a611772565b602002602001018181525050828160028151811061124a5761124a611772565b6020908102919091010152949350505050565b5f808260030b1215611288576040516311ead17f60e31b8152600383900b600482015260240161051e565b5063ffffffff1690565b5f81518084528060208401602086015e5f602082860101526020601f19601f83011685010191505092915050565b602081525f610ab96020830184611292565b80356001600160a01b03811681146112e8575f80fd5b919050565b5f80604083850312156112fe575f80fd5b611307836112d2565b946020939093013593505050565b5f805f60608486031215611327575f80fd5b611330846112d2565b925061133e602085016112d2565b929592945050506040919091013590565b5f6020828403121561135f575f80fd5b610ab9826112d2565b803563ffffffff811681146112e8575f80fd5b5f805f6060848603121561138d575f80fd5b611396846112d2565b925061133e60208501611368565b5f608082840312156113b4575f80fd5b50919050565b5f805f606084860312156113cc575f80fd5b6113d5846112d2565b9250602084013567ffffffffffffffff8111156113f0575f80fd5b6113fc868287016113a4565b925050604084013567ffffffffffffffff811115611418575f80fd5b611424868287016113a4565b9150509250925092565b5f6020828403121561143e575f80fd5b813567ffffffffffffffff811115611454575f80fd5b610b19848285016113a4565b5f8060408385031215611471575f80fd5b61147a836112d2565b915061148860208401611368565b90509250929050565b5f80604083850312156114a2575f80fd5b6114ab836112d2565b9150611488602084016112d2565b5f602082840312156114c9575f80fd5b81358015158114610ab9575f80fd5b600181811c908216806114ec57607f821691505b6020821081036113b457634e487b7160e01b5f52602260045260245ffd5b634e487b7160e01b5f52604160045260245ffd5b6040516080810167ffffffffffffffff811182821017156115415761154161150a565b60405290565b604051601f8201601f1916810167ffffffffffffffff811182821017156115705761157061150a565b604052919050565b803560ff811681146112e8575f80fd5b5f60808236031215611598575f80fd5b6115a061151e565b823581526115b060208401611578565b60208201526115c160408401611578565b6040820152606083013567ffffffffffffffff8111156115df575f80fd5b830136601f8201126115ef575f80fd5b803567ffffffffffffffff8111156116095761160961150a565b61161c601f8201601f1916602001611547565b818152366020838501011115611630575f80fd5b816020840160208301375f9181016020019190915260608301525092915050565b8082018082111561042757634e487b7160e01b5f52601160045260245ffd5b5f8151808452602084019350602083015f5b828110156116a0578151865260209586019590910190600101611682565b5093949350505050565b60ff851681525f602085106116cd57634e487b7160e01b5f52602160045260245ffd5b846020830152608060408301526116e76080830185611670565b82810360608401526116f98185611670565b979650505050505050565b5f60208284031215611714575f80fd5b5051919050565b604081528251604082015260ff602084015116606082015260ff60408401511660808201525f6060840151608060a084015261175a60c0840182611292565b91505060018060a01b03831660208301529392505050565b634e487b7160e01b5f52603260045260245ffdfea2646970667358221220ad02fd9e32a546f05503dfd776c446313ada24073f543aed6677349c63ce097264736f6c634300081a0033",
  "linkReferences": {},
  "deployedLinkReferences": {}
}