{
  "_format": "hh-sol-artifact-1",
  "contractName": "Vault",
  "sourceName": "contracts/Vault.sol",
  "abi": [
    {
      "inputs": [
        {
          "internalType": "address",
          "name": "_uToken",
          "type": "address"
        }
      ],
      "stateMutability": "nonpayable",
      "type": "constructor"
    },
    {
      "inputs": [
        {
          "internalType": "uint8",
          "name": "got",
          "type": "uint8"
        },
        {
          "internalType": "uint8",
          "name": "expected",
          "type": "uint8"
        }
      ],
      "name": "InvalidEncryptedInput",
      "type": "error"
    },
    {
      "inputs": [
        {
          "internalType": "int32",
          "name": "value",
          "type": "int32"
        }
      ],
      "name": "SecurityZoneOutOfBounds",
      "type": "error"
    },
    {
      "anonymous": false,
      "inputs": [
        {
          "indexed": true,
          "internalType": "address",
          "name": "user",
          "type": "address"
        },
        {
          "indexed": false,
          "internalType": "uint256",
          "name": "amount",
          "type": "uint256"
        }
      ],
      "name": "Deposit",
      "type": "event"
    },
    {
      "anonymous": false,
      "inputs": [
        {
          "indexed": true,
          "internalType": "uint256",
          "name": "requestId",
          "type": "uint256"
        },
        {
          "indexed": true,
          "internalType": "address",
          "name": "user",
          "type": "address"
        },
        {
          "indexed": false,
          "internalType": "uint256",
          "name": "amount",
          "type": "uint256"
        }
      ],
      "name": "WithdrawalFinalized",
      "type": "event"
    },
    {
      "anonymous": false,
      "inputs": [
        {
          "indexed": true,
          "internalType": "uint256",
          "name": "requestId",
          "type": "uint256"
        },
        {
          "indexed": true,
          "internalType": "address",
          "name": "user",
          "type": "address"
        }
      ],
      "name": "WithdrawalRequested",
      "type": "event"
    },
    {
      "inputs": [],
      "name": "SCALE",
      "outputs": [
        {
          "internalType": "uint256",
          "name": "",
          "type": "uint256"
        }
      ],
      "stateMutability": "view",
      "type": "function"
    },
    {
      "inputs": [
        {
          "internalType": "uint32",
          "name": "amount",
          "type": "uint32"
        }
      ],
      "name": "deposit",
      "outputs": [],
      "stateMutability": "nonpayable",
      "type": "function"
    },
    {
      "inputs": [
        {
          "internalType": "uint256",
          "name": "reqId",
          "type": "uint256"
        }
      ],
      "name": "finalizeWithdraw",
      "outputs": [],
      "stateMutability": "nonpayable",
      "type": "function"
    },
    {
      "inputs": [],
      "name": "nextRequestId",
      "outputs": [
        {
          "internalType": "uint256",
          "name": "",
          "type": "uint256"
        }
      ],
      "stateMutability": "view",
      "type": "function"
    },
    {
      "inputs": [],
      "name": "pToken",
      "outputs": [
        {
          "internalType": "contract PassERC20",
          "name": "",
          "type": "address"
        }
      ],
      "stateMutability": "view",
      "type": "function"
    },
    {
      "inputs": [
        {
          "internalType": "uint32",
          "name": "amount",
          "type": "uint32"
        },
        {
          "components": [
            {
              "internalType": "uint256",
              "name": "ctHash",
              "type": "uint256"
            },
            {
              "internalType": "uint8",
              "name": "securityZone",
              "type": "uint8"
            },
            {
              "internalType": "uint8",
              "name": "utype",
              "type": "uint8"
            },
            {
              "internalType": "bytes",
              "name": "signature",
              "type": "bytes"
            }
          ],
          "internalType": "struct InEuint32",
          "name": "encryptedPassword",
          "type": "tuple"
        }
      ],
      "name": "requestWithdraw",
      "outputs": [
        {
          "internalType": "uint256",
          "name": "",
          "type": "uint256"
        }
      ],
      "stateMutability": "nonpayable",
      "type": "function"
    },
    {
      "inputs": [
        {
          "internalType": "address",
          "name": "_pToken",
          "type": "address"
        }
      ],
      "name": "setPassToken",
      "outputs": [],
      "stateMutability": "nonpayable",
      "type": "function"
    },
    {
      "inputs": [],
      "name": "uToken",
      "outputs": [
        {
          "internalType": "contract IERC20",
          "name": "",
          "type": "address"
        }
      ],
      "stateMutability": "view",
      "type": "function"
    },
    {
      "inputs": [
        {
          "internalType": "uint256",
          "name": "",
          "type": "uint256"
        }
      ],
      "name": "withdrawalRequests",
      "outputs": [
        {
          "internalType": "address",
          "name": "user",
          "type": "address"
        },
        {
          "internalType": "euint32",
          "name": "amount",
          "type": "uint256"
        },
        {
          "internalType": "bool",
          "name": "claimed",
          "type": "bool"
        }
      ],
      "stateMutability": "view",
      "type": "function"
    }
  ],
  "bytecode": "0x6080604052348015600e575f80fd5b50604051610f79380380610f79833981016040819052602b91604f565b600180546001600160a01b0319166001600160a01b0392909216919091179055607a565b5f60208284031215605e575f80fd5b81516001600160a01b03811681146073575f80fd5b9392505050565b610ef2806100875f395ff3fe608060405234801561000f575f80fd5b5060043610610090575f3560e01c8063937b258111610063578063937b258114610102578063a8805ea914610165578063b7e8bc9914610194578063e7e6d848146101a7578063eced5526146101ba575f80fd5b80630928d1521461009457806358a06f07146100a957806363315637146100d85780636a84a985146100eb575b5f80fd5b6100a76100a2366004610afa565b6101c9565b005b5f546100bb906001600160a01b031681565b6040516001600160a01b0390911681526020015b60405180910390f35b6001546100bb906001600160a01b031681565b6100f460035481565b6040519081526020016100cf565b61013e610110366004610afa565b600260208190525f91825260409091208054600182015491909201546001600160a01b039092169160ff1683565b604080516001600160a01b03909416845260208401929092521515908201526060016100cf565b6100a7610173366004610b11565b5f80546001600160a01b0319166001600160a01b0392909216919091179055565b6100a76101a2366004610b4f565b6103b5565b6100f46101b5366004610b68565b610555565b6100f4670de0b6b3a764000081565b5f81815260026020526040902080546001600160a01b031633146102275760405162461bcd60e51b815260206004820152601060248201526f139bdd081e5bdd5c881c995c5d595cdd60821b60448201526064015b60405180910390fd5b600281015460ff161561026e5760405162461bcd60e51b815260206004820152600f60248201526e105b1c9958591e4818db185a5b5959608a1b604482015260640161021e565b5f8061027d83600101546106b6565b915063ffffffff169150806102cb5760405162461bcd60e51b815260206004820152601460248201527344656372797074696f6e206e6f7420726561647960601b604482015260640161021e565b60028301805460ff1916600117905581156103785760015483546001600160a01b039182169163a9059cbb911661030a670de0b6b3a764000086610bcd565b6040516001600160e01b031960e085901b1681526001600160a01b03909216600483015260248201526044016020604051808303815f875af1158015610352573d5f803e3d5ffd5b505050506040513d601f19601f820116820180604052508101906103769190610bf3565b505b604051828152339085907f2144673b243cbac0f18cd0de7b99b0d8e12caf36ff781e39524425d75ba4b2739060200160405180910390a350505050565b5f546001600160a01b03166104005760405162461bcd60e51b815260206004820152601160248201527014185cdcd51bdad95b881b9bdd081cd95d607a1b604482015260640161021e565b6001546001600160a01b03166323b872dd333061042b670de0b6b3a764000063ffffffff8716610bcd565b6040516001600160e01b031960e086901b1681526001600160a01b03938416600482015292909116602483015260448201526064016020604051808303815f875af115801561047c573d5f803e3d5ffd5b505050506040513d601f19601f820116820180604052508101906104a09190610bf3565b505f5460405163d35e29d760e01b815233600482015263ffffffff831660248201526001600160a01b039091169063d35e29d7906044015f604051808303815f87803b1580156104ee575f80fd5b505af1158015610500573d5f803e3d5ffd5b503392507fe1fffcc4923d04b559f4d29a8bfc6cda04eb5b0d3c460751c2402c5c5cc9109c91506105419050670de0b6b3a764000063ffffffff8516610bcd565b60405190815260200160405180910390a250565b5f8061056861056384610c8a565b6106cf565b5f549091506105819082906001600160a01b031661076b565b5f805460405163b7bd350760e01b815233600482015263ffffffff87166024820152604481018490526001600160a01b039091169063b7bd3507906064016020604051808303815f875af11580156105db573d5f803e3d5ffd5b505050506040513d601f19601f820116820180604052508101906105ff9190610d53565b600380549192505f91908261061383610d6a565b909155506040805160608101825233815260208082018681525f838501818152868252600293849052949020925183546001600160a01b0319166001600160a01b0390911617835551600183015591519101805460ff1916911515919091179055905061067f826107de565b604051339082907fec633583b4618456de8f6a7d1c8c87f24831d9422af8bd760673af7b7b2bce1c905f90a3925050505b92915050565b5f805f806106c385610804565b90969095509350505050565b60408101515f9060049060ff16811461070e5760408084015190516367cf307160e01b815260ff9182166004820152908216602482015260440161021e565b60408051608080820183525f808352602080840182905283850191909152606092830183905283519182018452865182528087015160ff1690820152600492810192909252808501519082015261076490610882565b9392505050565b6040516346ce4e4960e11b8152600481018390526001600160a01b038216602482015273ea30c4b8b44078bbf8a6ef5b9f1ec1626c7848d990638d9c9c92906044015f604051808303815f87803b1580156107c4575f80fd5b505af11580156107d6573d5f803e3d5ffd5b505050505050565b6107e7816108fd565b6107f7576107f45f610906565b90505b61080081610911565b5050565b60405163458693c960e01b8152600481018290525f90819073ea30c4b8b44078bbf8a6ef5b9f1ec1626c7848d99063458693c9906024016040805180830381865afa158015610855573d5f803e3d5ffd5b505050506040513d601f19601f820116820180604052508101906108799190610d82565b91509150915091565b6040516313fce3b160e11b81525f9073ea30c4b8b44078bbf8a6ef5b9f1ec1626c7848d9906327f9c762906108bd9085903390600401610dac565b6020604051808303815f875af11580156108d9573d5f803e3d5ffd5b505050506040513d601f19601f820116820180604052508101906106b09190610d53565b5f8115156106b0565b5f6106b0825f61097f565b604051630828982760e01b8152600481018290523360248201525f9073ea30c4b8b44078bbf8a6ef5b9f1ec1626c7848d9906308289827906044015f604051808303815f87803b158015610963575f80fd5b505af1158015610975573d5f803e3d5ffd5b5093949350505050565b5f8061098d84600485610995565b949350505050565b604080515f8082526020820190925273ea30c4b8b44078bbf8a6ef5b9f1ec1626c7848d990631888debd908590601a906109db898960ff166109d68a610a3a565b610a6f565b6040518563ffffffff1660e01b81526004016109fa9493929190610e4e565b6020604051808303815f875af1158015610a16573d5f803e3d5ffd5b505050506040513d601f19601f8201168201806040525081019061098d9190610d53565b5f808260030b1215610a65576040516311ead17f60e31b8152600383900b600482015260240161021e565b5063ffffffff1690565b604080516003808252608082019092526060915f919060208201848036833701905050905084815f81518110610aa757610aa7610ea8565b6020026020010181815250508381600181518110610ac757610ac7610ea8565b6020026020010181815250508281600281518110610ae757610ae7610ea8565b6020908102919091010152949350505050565b5f60208284031215610b0a575f80fd5b5035919050565b5f60208284031215610b21575f80fd5b81356001600160a01b0381168114610764575f80fd5b803563ffffffff81168114610b4a575f80fd5b919050565b5f60208284031215610b5f575f80fd5b61076482610b37565b5f8060408385031215610b79575f80fd5b610b8283610b37565b9150602083013567ffffffffffffffff811115610b9d575f80fd5b830160808186031215610bae575f80fd5b809150509250929050565b634e487b7160e01b5f52601160045260245ffd5b80820281158282048414176106b0576106b0610bb9565b80518015158114610b4a575f80fd5b5f60208284031215610c03575f80fd5b61076482610be4565b634e487b7160e01b5f52604160045260245ffd5b6040516080810167ffffffffffffffff81118282101715610c4357610c43610c0c565b60405290565b604051601f8201601f1916810167ffffffffffffffff81118282101715610c7257610c72610c0c565b604052919050565b803560ff81168114610b4a575f80fd5b5f60808236031215610c9a575f80fd5b610ca2610c20565b82358152610cb260208401610c7a565b6020820152610cc360408401610c7a565b6040820152606083013567ffffffffffffffff811115610ce1575f80fd5b830136601f820112610cf1575f80fd5b803567ffffffffffffffff811115610d0b57610d0b610c0c565b610d1e601f8201601f1916602001610c49565b818152366020838501011115610d32575f80fd5b816020840160208301375f9181016020019190915260608301525092915050565b5f60208284031215610d63575f80fd5b5051919050565b5f60018201610d7b57610d7b610bb9565b5060010190565b5f8060408385031215610d93575f80fd5b82519150610da360208401610be4565b90509250929050565b604081528251604082015260ff602084015116606082015260ff60408401511660808201525f6060840151608060a084015280518060c0850152806020830160e086015e5f60e0828601015260e0601f19601f8301168501019250505061076460208301846001600160a01b03169052565b5f8151808452602084019350602083015f5b82811015610975578151865260209586019590910190600101610e30565b60ff851681525f60208510610e7157634e487b7160e01b5f52602160045260245ffd5b84602083015260806040830152610e8b6080830185610e1e565b8281036060840152610e9d8185610e1e565b979650505050505050565b634e487b7160e01b5f52603260045260245ffdfea26469706673582212201d86486023a231346552643a9b7de1e4c64380865abf1886be0c96e87a2040a164736f6c634300081a0033",
  "linkReferences": {},
  "deployedLinkReferences": {}
}